:100000003DEF01F00000000000EF00F000000000F4
:0A0010000000000000000000F3D71C
:0A001C00210E0D6E0D2EFED712000E
:100026000F0E0C6E470E0D6E0D2EFED70C2EFCD746
:06003600000000001200B2
:06003C00000000001200AC
:100042003FBE02D0819E01D0818E3FBC02D0819CF6
:1000520001D0818C3FBA02D0819A01D0818A3FB807
:1000620002D0819801D0818837B002D0848201D039
:1000720084928480E2DF84903FB602D0819E01D0D8
:10008200818E3FB402D0819C01D0818C3FB202D0DC
:10009200819A01D0818A3FB002D0819801D08188B3
:1000A20037B002D0848201D084928480C6DF8490EB
:0C00B20037A002D0B7DF01D0B0DF120091
:1000BE00086A080E0C6E003408360450085ED8B07C
:0E00CE0002D00826D89000360C2EF5D712006E
:0C00DC0037903EC03FF0AFDF37801200CD
:1000E800969296909398939A939C939E84908492D8
:1000F800819E819C819A819892DF91DF90DF818A2D
:100108008188848097DF84908ADF848093DF84905D
:1001180086DF84808FDF849082DF819884808ADF05
:1001280084907DDF848086DF8490819A818E8480AC
:1001380081DF849074DF819E818884807BDF849056
:100148008198848077DF84906ADF848073DF84906D
:10015800818884806FDF849062DF819884806ADF81
:100168008490818E818C818A8188848063DF8490E9
:0601780056DF3780120083
:10017E000900F5CFE6FF0006FBE10106F9E11200EA
:10018E003B6A030E3B5C0AE23B503924E16E000EE3
:10019E003A20E26E200EE66E3B2AF3D73B5039240E
:1001AE00E16E000E3A20E26EE66A3B063B503924C1
:1001BE003C6E000E3A203D6E0A0E046E38C000F002
:1001CE0077DF08C000F0300E00263CC0E1FF3DC0D6
:1001DE00E2FF00C0E6FF0A0E046E38C000F068DFD2
:1001EE0000C038F00050000A01E102D03B06DED715
:0201FE001200ED
:100200000FD0800E386E19D0C00E386E16D0940EF6
:10021000386E13D0D40E386E10D0800E386E0DD0DC
:100220003850010AEEE03850020AEEE03850030A76
:10023000EEE03850040AEEE0F0D73904006E385092
:10024000002600C038F000C03FF0FBDE37903C6A6B
:100250003C503A24E96E000E3B20EA6EEE520BE071
:100260003C503A24E96E000E3B20EA6EEECF3EF0A1
:0A02700035DF3C2AEDD7378012007D
:10027A0004EC02F00F01396B3C6B936A966A816A4F
:10028A00846A2DDF010E3F6ED7DE0C0E3F6ED4DE80
:10029A00010E386E060E396E1B0E3A6E000E3B6E5C
:1002AA00AADF080E0B6E9D0E0C6E050E0D6E0D2E3E
:1002BA00FED70C2EFCD70B2EFAD700000000010E39
:1002CA003F6EBADE3B0E2E6E000E2E5CD8A080D09A
:1002DA002EC038F02F0E396E000E3A6E53DF010E23
:1002EA00386E080E396E2F0E3A6E000E3B6E83DFA3
:1002FA00010E386E070E396E190E3A6E000E3B6EFD
:10030A007ADF010E386E060E396E150E3A6E000E41
:10031A003B6E71DF010E386E080E396E170E3A6E9B
:10032A00000E3B6E68DF020E0B6E040E0C6EBA0EE8
:10033A000D6E0D2EFED70C2EFCD70B2EFAD7000011
:10034A002E50000A43E13B0E2D6E000E2D5C3EE35B
:10035A002DC038F0330E396E000E3A6E13DF010EDF
:10036A00386E080E396E330E3A6E000E3B6E43DF5E
:10037A00010E386E070E396E290E3A6E000E3B6E6C
:10038A003ADF010E386E060E396E2B0E3A6E000EEB
:10039A003B6E31DF010E386E080E396E270E3A6E4B
:1003AA00000E3B6E28DF020E0B6E040E0C6EBA0EA8
:1003BA000D6E0D2EFED70C2EFCD70B2EFAD7000091
:1003CA002D50000801E304D02D06BFD72E067CD796
:1003DA00010E386E060E396E210E3A6E000E3B6E15
:0603EA000ADFF6D7FFD781
:1004080010EE15F0180E006E010E016EF00EF66E6D
:0E041800030EF76E000EF86EBFEC00F012003F
:0203F0003000DB
:0203F2003A00CF
:0203F4003100D6
:0603F60030323A30300005
:0603FC0030303A30300001
:020402003A00BE
:020404003000C6
:020406003000C4
:020000040030CA
:0D000100231F3CFFBF81FF0FC00FE00F4029
:00000001FF
