:020000040000FA
:04000000B5EF36F032
:106D6A00900EF66E6D0EF76E000EF86E00EE01F0E4
:106D7A0010EE38F00900F5CFEEFFE550E150FAE1E8
:106D8A000001E4EF36F078003E007B0076007700E1
:106D9A005400000039007700540000007A007700A0
:106DAA007B003D0030005400000006006D003F00EB
:106DBA0066003F004F003F003F006D00000020EEDC
:106DCA0001F010EE9AF0370EDBCFE3FFE806FCE2A3
:106DDA00000E936E000E816E000E926E000E806E93
:106DEA00000E0001D26F000E636F000E626F80808A
:106DFA009AC081FF0D0E396EFC0EE82EFED7392E91
:106E0A00FCD7809080829CC081FF0D0E396EFC0EEB
:106E1A00E82EFED7392EFCD7809280849EC081FF4F
:106E2A000D0E396EFC0EE82EFED7392EFCD7809453
:106E3A008086A0C081FF0D0E396EFC0EE82EFED7AB
:106E4A00392EFCD780960001624B632B63BF37EF64
:106E5A0037F0635109E1190E625DD8A037EF37F0B8
:106E6A0039EF37F0FCEF36F0010ED26F000E656F86
:106E7A00000E646F65BF4BEF37F0655109E1190EDB
:106E8A00645DD8A04BEF37F04DEF37F04FEF37F096
:106E9A008CEF37F080809CC081FF0D0E396EFC0E9E
:106EAA00E82EFED7392EFCD7809080829EC081FFC3
:106EBA000D0E396EFC0EE82EFED7392EFCD78092C5
:106ECA008084A0C081FF0D0E396EFC0EE82EFED71D
:106EDA00392EFCD780948086A2C081FF0D0E396EB0
:106EEA00FC0EE82EFED7392EFCD780960001644BA3
:106EFA00652B65BF8AEF37F0655109E1190E645DAC
:106F0A00D8A08AEF37F08CEF37F04FEF37F0020E48
:106F1A00D26F000E676F000E666F67BF9EEF37F085
:106F2A00675109E1190E665DD8A09EEF37F0A0EF10
:106F3A0037F0A2EF37F0DFEF37F080809EC081FF95
:106F4A000D0E396EFC0EE82EFED7392EFCD7809036
:106F5A008082A0C081FF0D0E396EFC0EE82EFED78E
:106F6A00392EFCD780928084A2C081FF0D0E396E23
:106F7A00FC0EE82EFED7392EFCD780948086A4C05A
:106F8A0081FF0D0E396EFC0EE82EFED7392EFCD786
:106F9A0080960001664B672B67BFDDEF37F06751BC
:106FAA0009E1190E665DD8A0DDEF37F0DFEF37F0A3
:106FBA00A2EF37F0030ED26F000E696F000E686FF2
:106FCA0069BFF1EF37F0695109E1190E685DD8A080
:106FDA00F1EF37F0F3EF37F0F5EF37F032EF38F043
:106FEA008080A0C081FF0D0E396EFC0EE82EFED700
:106FFA00392EFCD780908082A2C081FF0D0E396E97
:10700A00FC0EE82EFED7392EFCD780928084A4C0CD
:10701A0081FF0D0E396EFC0EE82EFED7392EFCD7F5
:10702A0080948086A6C081FF0D0E396EFC0EE82E74
:10703A00FED7392EFCD780960001684B692B69BFB1
:10704A0030EF38F0695109E1190E685DD8A030EFC8
:10705A0038F032EF38F0F5EF37F0040ED26F000E49
:10706A006B6F000E6A6F6BBF44EF38F06B5109E12A
:10707A00190E6A5DD8A044EF38F046EF38F048EFB1
:10708A0038F085EF38F08080A2C081FF0D0E396E8E
:10709A00FC0EE82EFED7392EFCD780908082A4C041
:1070AA0081FF0D0E396EFC0EE82EFED7392EFCD765
:1070BA0080928084A6C081FF0D0E396EFC0EE82EE8
:1070CA00FED7392EFCD780948086A8C081FF0D0E8A
:1070DA00396EFC0EE82EFED7392EFCD780960001B9
:1070EA006A4B6B2B6BBF83EF38F06B5109E1190EBA
:1070FA006A5DD8A083EF38F085EF38F048EF38F0B2
:10710A00050ED26F000E6D6F000E6C6F6DBF97EF9C
:10711A0038F06D5109E1190E6C5DD8A097EF38F07F
:10712A0099EF38F09BEF38F0D8EF38F08080A4C0A0
:10713A0081FF0D0E396EFC0EE82EFED7392EFCD7D4
:10714A0080908082A6C081FF0D0E396EFC0EE82E5B
:10715A00FED7392EFCD780928084A8C081FF0D0EFD
:10716A00396EFC0EE82EFED7392EFCD78094808625
:10717A00AAC081FF0D0E396EFC0EE82EFED7392EFD
:10718A00FCD7809600016C4B6D2B6DBFD6EF38F0A3
:10719A006D5109E1190E6C5DD8A0D6EF38F0D8EF21
:1071AA0038F09BEF38F0060ED26F000E6F6F000EAC
:1071BA006E6F6FBFEAEF38F06F5109E1190E6E5D1D
:1071CA00D8A0EAEF38F0ECEF38F0EEEF38F02BEF1A
:1071DA0039F08080A6C081FF0D0E396EFC0EE82EB4
:1071EA00FED7392EFCD780908082A8C081FF0D0E71
:1071FA00396EFC0EE82EFED7392EFCD78092808499
:10720A00AAC081FF0D0E396EFC0EE82EFED7392E6C
:10721A00FCD780948086ACC081FF0D0E396EFC0EBF
:10722A00E82EFED7392EFCD7809600016E4B6F2BC5
:10723A006FBF29EF39F06F5109E1190E6E5DD8A0C1
:10724A0029EF39F02BEF39F0EEEF38F0070ED26F55
:10725A00000E716F000E706F71BF3DEF39F0715102
:10726A0009E1190E705DD8A03DEF39F03FEF39F012
:10727A0041EF39F07EEF39F08080A8C081FF0D0E12
:10728A00396EFC0EE82EFED7392EFCD7809080820C
:10729A00AAC081FF0D0E396EFC0EE82EFED7392EDC
:1072AA00FCD780928084ACC081FF0D0E396EFC0E33
:1072BA00E82EFED7392EFCD780948086AEC081FF97
:1072CA000D0E396EFC0EE82EFED7392EFCD78096AD
:1072DA000001704B712B71BF7CEF39F0715109E1DC
:1072EA00190E705DD8A07CEF39F07EEF39F041EFCE
:1072FA0039F0080ED26F000E736F000E726F73BFF3
:10730A0090EF39F0735109E1190E725DD8A090EF30
:10731A0039F092EF39F094EF39F0D1EF39F08080FB
:10732A00AAC081FF0D0E396EFC0EE82EFED7392E4B
:10733A00FCD780908082ACC081FF0D0E396EFC0EA6
:10734A00E82EFED7392EFCD780928084AEC081FF0A
:10735A000D0E396EFC0EE82EFED7392EFCD780941E
:10736A008086B0C081FF0D0E396EFC0EE82EFED766
:10737A00392EFCD780960001724B732B73BFCFEF67
:10738A0039F0735109E1190E725DD8A0CFEF39F0C7
:10739A00D1EF39F094EF39F0090ED26F000E756F04
:1073AA00000E746F75BFE3EF39F0755109E1190EDC
:1073BA00745DD8A0E3EF39F0E5EF39F0E7EF39F083
:1073CA0024EF3AF08080ACC081FF0D0E396EFC0EBE
:1073DA00E82EFED7392EFCD780908082AEC081FF7E
:1073EA000D0E396EFC0EE82EFED7392EFCD7809290
:1073FA008084B0C081FF0D0E396EFC0EE82EFED7D8
:10740A00392EFCD780948086B2C081FF0D0E396E6A
:10741A00FC0EE82EFED7392EFCD780960001744B5D
:10742A00752B75BF22EF3AF0755109E1190E745D9B
:10743A00D8A022EF3AF024EF3AF0E7EF39F00A0E3B
:10744A00D26F000E776F000E766F77BF36EF3AF085
:10745A00775109E1190E765DD8A036EF3AF038EF88
:10746A003AF03AEF3AF077EF3AF08080AEC081FF17
:10747A000D0E396EFC0EE82EFED7392EFCD7809001
:10748A008082B0C081FF0D0E396EFC0EE82EFED749
:10749A00392EFCD780928084B2C081FF0D0E396EDE
:1074AA00FC0EE82EFED7392EFCD780948086B4C015
:1074BA0081FF0D0E396EFC0EE82EFED7392EFCD751
:1074CA0080960001764B772B77BF75EF3AF07751AC
:1074DA0009E1190E765DD8A075EF3AF077EF3AF028
:1074EA003AEF3AF00B0ED26F000E796F000E786FFA
:1074FA0079BF89EF3AF0795109E1190E785DD8A080
:10750A0089EF3AF08BEF3AF08DEF3AF0CAEF3AF0A2
:10751A008080B0C081FF0D0E396EFC0EE82EFED7BA
:10752A00392EFCD780908082B2C081FF0D0E396E51
:10753A00FC0EE82EFED7392EFCD780928084B4C088
:10754A0081FF0D0E396EFC0EE82EFED7392EFCD7C0
:10755A0080948086B6C081FF0D0E396EFC0EE82E2F
:10756A00FED7392EFCD780960001784B792B79BF4C
:10757A00C8EF3AF0795109E1190E785DD8A0C8EF41
:10758A003AF0CAEF3AF08DEF3AF00C0ED26F000ED5
:10759A007B6F000E7A6F7BBFDCEF3AF07B5109E11B
:1075AA00190E7A5DD8A0DCEF3AF0DEEF3AF0E0EFA0
:1075BA003AF01DEF3BF08080B2C081FF0D0E396EAC
:1075CA00FC0EE82EFED7392EFCD780908082B4C0FC
:1075DA0081FF0D0E396EFC0EE82EFED7392EFCD730
:1075EA0080928084B6C081FF0D0E396EFC0EE82EA3
:1075FA00FED7392EFCD780948086B8C081FF0D0E45
:10760A00396EFC0EE82EFED7392EFCD78096000183
:10761A007A4B7B2B7BBF1BEF3BF07B5109E1190EA9
:10762A007A5DD8A01BEF3BF01DEF3BF0E0EF3AF09C
:10763A000D0ED26F000E7D6F000E7C6F7DBF2FEF97
:10764A003BF07D5109E1190E7C5DD8A02FEF3BF08C
:10765A0031EF3BF033EF3BF070EF3BF08080B4C08A
:10766A0081FF0D0E396EFC0EE82EFED7392EFCD79F
:10767A0080908082B6C081FF0D0E396EFC0EE82E16
:10768A00FED7392EFCD780928084B8C081FF0D0EB8
:10769A00396EFC0EE82EFED7392EFCD780948086F0
:1076AA00BAC081FF0D0E396EFC0EE82EFED7392EB8
:1076BA00FCD7809600017C4B7D2B7DBF6EEF3BF0A3
:1076CA007D5109E1190E7C5DD8A06EEF3BF070EF99
:1076DA003BF033EF3BF00E0ED26F000E7F6F000EC1
:1076EA007E6F7FBF82EF3BF07F5109E1190E7E5D0D
:1076FA00D8A082EF3BF084EF3BF086EF3BF0C3EF7C
:10770A003BF08080B6C081FF0D0E396EFC0EE82E6C
:10771A00FED7392EFCD780908082B8C081FF0D0E2B
:10772A00396EFC0EE82EFED7392EFCD78092808463
:10773A00BAC081FF0D0E396EFC0EE82EFED7392E27
:10774A00FCD780948086BCC081FF0D0E396EFC0E7A
:10775A00E82EFED7392EFCD7809600017E4B7F2B70
:10776A007FBFC1EF3BF07F5109E1190E7E5DD8A0C2
:10777A00C1EF3BF0C3EF3BF086EF3BF00F0ED26F49
:10778A00000E816F000E806F81BFD5EF3BF08151F3
:10779A0009E1190E805DD8A0D5EF3BF0D7EF3BF099
:1077AA00D9EF3BF016EF3CF08080B8C081FF0D0E98
:1077BA00396EFC0EE82EFED7392EFCD780908082D7
:1077CA00BAC081FF0D0E396EFC0EE82EFED7392E97
:1077DA00FCD780928084BCC081FF0D0E396EFC0EEE
:1077EA00E82EFED7392EFCD780948086BEC081FF52
:1077FA000D0E396EFC0EE82EFED7392EFCD7809678
:10780A000001804B812B81BF14EF3CF0815109E1CB
:10781A00190E805DD8A014EF3CF016EF3CF0D9EFBA
:10782A003BF0100ED26F000E836F000E826F83BF83
:10783A0028EF3CF0835109E1190E825DD8A028EFA8
:10784A003CF02AEF3CF02CEF3CF069EF3CF08080F2
:10785A00BAC081FF0D0E396EFC0EE82EFED7392E06
:10786A00FCD780908082BCC081FF0D0E396EFC0E61
:10787A00E82EFED7392EFCD780928084BEC081FFC5
:10788A000D0E396EFC0EE82EFED7392EFCD78094E9
:10789A008086C0C081FF0D0E396EFC0EE82EFED721
:1078AA00392EFCD780960001824B832B83BF67EF6A
:1078BA003CF0835109E1190E825DD8A067EF3CF0D4
:1078CA0069EF3CF02CEF3CF0110ED26F000E856F81
:1078DA00000E846F85BF7BEF3CF0855109E1190EDC
:1078EA00845DD8A07BEF3CF07DEF3CF07FEF3CF06D
:1078FA00BCEF3CF08080BCC081FF0D0E396EFC0EDF
:10790A00E82EFED7392EFCD780908082BEC081FF38
:10791A000D0E396EFC0EE82EFED7392EFCD780925A
:10792A008084C0C081FF0D0E396EFC0EE82EFED792
:10793A00392EFCD780948086C2C081FF0D0E396E25
:10794A00FC0EE82EFED7392EFCD780960001844B18
:10795A00852B85BFBAEF3CF0855109E1190E845D8C
:10796A00D8A0BAEF3CF0BCEF3CF07FEF3CF0120E2F
:10797A00D26F000E876F000E866F87BFCEEF3CF086
:10798A00875109E1190E865DD8A0CEEF3CF0D0EF01
:10799A003CF0D2EF3CF00FEF3DF08080BEC081FF9B
:1079AA000D0E396EFC0EE82EFED7392EFCD78090CC
:1079BA008082C0C081FF0D0E396EFC0EE82EFED704
:1079CA00392EFCD780928084C2C081FF0D0E396E99
:1079DA00FC0EE82EFED7392EFCD780948086C4C0D0
:1079EA0081FF0D0E396EFC0EE82EFED7392EFCD71C
:1079FA0080960001864B872B87BF0DEF3DF087519C
:107A0A0009E1190E865DD8A00DEF3DF00FEF3DF0AC
:107A1A00D2EF3CF0130ED26F000E896F000E886F02
:107A2A0089BF21EF3DF0895109E1190E885DD8A07F
:107A3A0021EF3DF023EF3DF025EF3DF062EF3DF001
:107A4A008080C0C081FF0D0E396EFC0EE82EFED775
:107A5A00392EFCD780908082C2C081FF0D0E396E0C
:107A6A00FC0EE82EFED7392EFCD780928084C4C043
:107A7A0081FF0D0E396EFC0EE82EFED7392EFCD78B
:107A8A0080948086C6C081FF0D0E396EFC0EE82EEA
:107A9A00FED7392EFCD780960001884B892B89BFE7
:107AAA0060EF3DF0895109E1190E885DD8A060EFB9
:107ABA003DF062EF3DF025EF3DF0140ED26F000E5F
:107ACA008B6F000E8A6F8BBF74EF3DF08B5109E10B
:107ADA00190E8A5DD8A074EF3DF076EF3DF078EF8D
:107AEA003DF0B5EF3DF08080C2C081FF0D0E396ECA
:107AFA00FC0EE82EFED7392EFCD780908082C4C0B7
:107B0A0081FF0D0E396EFC0EE82EFED7392EFCD7FA
:107B1A0080928084C6C081FF0D0E396EFC0EE82E5D
:107B2A00FED7392EFCD780948086C8C081FF0D0EFF
:107B3A00396EFC0EE82EFED7392EFCD7809600014E
:107B4A008A4B8B2B8BBFB3EF3DF08B5109E1190E9A
:107B5A008A5DD8A0B3EF3DF0B5EF3DF078EF3DF088
:107B6A00150ED26F000E8D6F000E8C6F8DBFC7EF92
:107B7A003DF08D5109E1190E8C5DD8A0C7EF3DF09B
:107B8A00C9EF3DF0CBEF3DF008EF3EF08080C4C076
:107B9A0081FF0D0E396EFC0EE82EFED7392EFCD76A
:107BAA0080908082C6C081FF0D0E396EFC0EE82ED1
:107BBA00FED7392EFCD780928084C8C081FF0D0E73
:107BCA00396EFC0EE82EFED7392EFCD780948086BB
:107BDA00CAC081FF0D0E396EFC0EE82EFED7392E73
:107BEA00FCD7809600018C4B8D2B8DBF06EF3EF0A3
:107BFA008D5109E1190E8C5DD8A006EF3EF008EF11
:107C0A003EF0CBEF3DF0160ED26F000E8F6F000ED6
:107C1A008E6F8FBF1AEF3EF08F5109E1190E8E5DFC
:107C2A00D8A01AEF3EF01CEF3EF01EEF3EF05BEFDD
:107C3A003EF08080C6C081FF0D0E396EFC0EE82E24
:107C4A00FED7392EFCD780908082C8C081FF0D0EE6
:107C5A00396EFC0EE82EFED7392EFCD7809280842E
:107C6A00CAC081FF0D0E396EFC0EE82EFED7392EE2
:107C7A00FCD780948086CCC081FF0D0E396EFC0E35
:107C8A00E82EFED7392EFCD7809600018E4B8F2B1B
:107C9A008FBF59EF3EF08F5109E1190E8E5DD8A0C2
:107CAA0059EF3EF05BEF3EF01EEF3EF0170ED26F3B
:107CBA00000E916F000E906F91BF6DEF3EF09151E3
:107CCA0009E1190E905DD8A06DEF3EF06FEF3EF01E
:107CDA0071EF3EF0AEEF3EF08080C8C081FF0D0E1E
:107CEA00396EFC0EE82EFED7392EFCD780908082A2
:107CFA00CAC081FF0D0E396EFC0EE82EFED7392E52
:107D0A00FCD780928084CCC081FF0D0E396EFC0EA8
:107D1A00E82EFED7392EFCD780948086CEC081FF0C
:107D2A000D0E396EFC0EE82EFED7392EFCD7809642
:107D3A000001904B912B91BFACEF3EF0915109E1BC
:107D4A00190E905DD8A0ACEF3EF0AEEF3EF071EFA9
:107D5A003EF0180ED26F000E936F000E926F93BF13
:107D6A00C0EF3EF0935109E1190E925DD8A0C0EF21
:107D7A003EF0C2EF3EF0C4EF3EF001EF3FF08080EC
:107D8A00CAC081FF0D0E396EFC0EE82EFED7392EC1
:107D9A00FCD780908082CCC081FF0D0E396EFC0E1C
:107DAA00E82EFED7392EFCD780928084CEC081FF80
:107DBA000D0E396EFC0EE82EFED7392EFCD78094B4
:107DCA008086D0C081FF0D0E396EFC0EE82EFED7DC
:107DDA00392EFCD780960001924B932B93BFFFEF6D
:107DEA003EF0935109E1190E925DD8A0FFEF3EF0E3
:107DFA0001EF3FF0C4EF3EF0190ED26F000E956FFF
:107E0A00000E946F95BF13EF3FF0955109E1190EDB
:107E1A00945DD8A013EF3FF015EF3FF017EF3FF056
:107E2A0054EF3FF08080CCC081FF0D0E396EFC0EFE
:107E3A00E82EFED7392EFCD780908082CEC081FFF3
:107E4A000D0E396EFC0EE82EFED7392EFCD7809225
:107E5A008084D0C081FF0D0E396EFC0EE82EFED74D
:107E6A00392EFCD780948086D0C081FF0D0E396EE2
:107E7A00FC0EE82EFED7392EFCD780960001944BD3
:107E8A00952B95BF52EF3FF0955109E1190E945D7C
:107E9A00D8A052EF3FF054EF3FF017EF3FF01A0E21
:107EAA00D26F000E976F000E966F97BF66EF3FF086
:107EBA00975109E1190E965DD8A066EF3FF068EF79
:107ECA003FF06AEF3FF0A7EF3FF08080CEC081FF1E
:107EDA000D0E396EFC0EE82EFED7392EFCD7809097
:107EEA008082D0C081FF0D0E396EFC0EE82EFED7BF
:107EFA00392EFCD780928084D0C081FF0D0E396E56
:107F0A00FC0EE82EFED7392EFCD780948086D0C08E
:107F1A0081FF0D0E396EFC0EE82EFED7392EFCD7E6
:107F2A0080960001964B972B97BFA5EF3FF097518C
:107F3A0009E1190E965DD8A0A5EF3FF0A7EF3FF033
:107F4A006AEF3FF01B0ED26F000E996F000E986F0A
:107F5A0099BFB9EF3FF0995109E1190E985DD8A080
:107F6A00B9EF3FF0BBEF3FF0BDEF3FF0FAEF3FF064
:107F7A008080D0C081FF0D0E396EFC0EE82EFED730
:107F8A00392EFCD780908082D0C081FF0D0E396EC9
:107F9A00FC0EE82EFED7392EFCD780928084D0C002
:107FAA0081FF0D0E396EFC0EE82EFED7392EFCD756
:107FBA0080948086D0C081FF0D0E396EFC0EE82EAB
:107FCA00FED7392EFCD780960001984B992B99BF82
:107FDA00F8EF3FF0995109E1190E985DD8A0F8EF32
:107FEA003FF0FAEF3FF0BDEF3FF01B0ED26FF5EF17
:067FFA0036F000EF00F07C
:020000040020DA
:08000000FFFFFFFFFFFFFFFF00
:020000040030CA
:0E000000FF251F3FFFBF85FF0FC00FE00F4021
:00000001FF
