:10000000FAEF00F00000000000EF00F00000000038
:0A0010000000000000000000F3D71C
:06001C00000000001200CC
:100022000F0E0C6E470E0D6E0D2EFED70C2EFCD74A
:06003200000000001200B6
:0A003800210E0D6E0D2EFED71200F2
:100042000101B1BF02D0819E01D0818EB1BD02D02B
:10005200819C01D0818CB1BB02D0819A01D0818A6E
:10006200B1B902D0819801D08188AAB102D084822C
:1000720001D084928480D1DF8490B1B702D0819E76
:1000820001D0818EB1B502D0819C01D0818CB1B3F7
:1000920002D0819A01D0818AB1B102D0819801D077
:1000A2008188AAB102D0848201D084928480B5DF93
:0E00B2008490AAA102D0B4DF01D0BDDF1200FD
:0E00C0000101AA91B0C1B1F1BCDFAA8112000A
:1000CE000900F5CFE6FF0006FBE10106F9E112009B
:1000DE00969296909398939A939C939E84908492E2
:1000EE00819E819C819A819895DF94DF93DF818A2E
:1000FE00818884808CDF84908DDF848088DF84907B
:10010E0089DF848084DF849085DF819884807FDF1F
:10011E00849080DF84807BDF8490819A818E8480BE
:10012E0076DF849077DF819E8188848070DF849073
:10013E00819884806CDF84906DDF848068DF84908A
:10014E008188848064DF849065DF819884805FDF9E
:10015E008490818E818C818A8188848058DF8490FE
:08016E0059DF0101AA81120012
:1001760010D0800E0101AB6F1AD0C00EAB6F17D036
:10018600940EAB6F14D0D40EAB6F11D0800EAB6F44
:100196000ED00101AB51010AECE0AB51020AEDE0D1
:1001A600AB51030AEDE0AB51040AEDE0EFD7AC0525
:1001B600006EAB51002600C0ABF100C0B1F13EDFCE
:1001C600AA91AF6BAF51AD25E96E000EAE21EA6E76
:1001D600EE520BE0AF51AD25E96E000EAE21EA6E90
:0E01E600EECFB0F16ADFAF2BEDD7AA81120089
:1001F400F0EC03F00F01396B3C6B936A966A816AE9
:10020400846A6BDF010EB16F1ADF0C0EB16F17DF5A
:10021400010EAB6F010EAC6F9C0EAD6F000EAE6F96
:10022400A8DF020EAB6F080EAC6F920EAD6F000E1E
:10023400AE6F9FDF0B0E0B6E260E0C6E5D0E0D6EF9
:100244000D2EFED70C2EFCD70B2EFAD70000000083
:10025400010EB16FF4DE010EAB6F020EAC6F810EB6
:10026400AD6F000EAE6F85DF020EAB6F070EAC6F85
:10027400AD0EAD6F000EAE6F7CDF030E0B6E8A0EFB
:100284000C6E550E0D6E0D2EFED70C2EFCD70B2EBC
:10029400FAD700000000010EB16FD1DE010EAB6F82
:1002A400030EAC6FD20EAD6F000EAE6F62DF020EA6
:1002B400AB6F060EAC6FC80EAD6F000EAE6F59DF9C
:1002C400030E0B6E8A0E0C6E550E0D6E0D2EFED7A0
:1002D4000C2EFCD70B2EFAD700000000010EB16FD4
:1002E400AEDE010EAB6F040EAC6FB70EAD6F000E39
:1002F400AE6F3FDF020EAB6F050EAC6F770EAD6FC6
:10030400000EAE6F36DF030E0B6E8A0E0C6E550EAA
:100314000D6E0D2EFED70C2EFCD70B2EFAD7000037
:100324000000010EB16F8BDE010EAB6F050EAC6FDA
:10033400300EAD6F000EAE6F1CDF020EAB6F040EFD
:10034400AC6F260EAD6F000EAE6F13DF030E0B6E97
:100354008A0E0C6E550E0D6E0D2EFED70C2EFCD78C
:100364000B2EFAD700000000010EB16F68DE010EFB
:10037400AB6F060EAC6F150EAD6F000EAE6FF9DEEF
:10038400020EAB6F030EAC6F410EAD6F000EAE6F7D
:10039400F0DE030E0B6E8A0E0C6E550E0D6E0D2ED6
:1003A400FED70C2EFCD70B2EFAD700000000010E4E
:1003B400B16F45DE010EAB6F070EAC6F660EAD6F0D
:1003C400000EAE6FD6DE020EAB6F020EAC6F5C0E8B
:1003D400AD6F000EAE6FCDDE030E0B6E8A0E0C6E8B
:1003E400550E0D6E0D2EFED70C2EFCD70B2EFAD704
:1003F40000000000010EB16F22DE010EAB6F080E8B
:10040400AC6F4B0EAD6F000EAE6FB3DE020EAB6F72
:10041400010EAC6FE30EAD6F000EAE6FAADE030EDD
:100424000B6E8A0E0C6E550E0D6E0D2EFED70C2E15
:10043400FCD70B2EFAD700000000010EB16FFFDDD0
:10044400010EAB6F090EAC6F740EAD6F010EAE6F83
:1004540090DE020EAB6FAC6B850EAD6F010EAE6F0E
:1004640088DE030E0B6E8A0E0C6E550E0D6E0D2E6D
:10047400FED70C2EFCD70B2EFAD700000000010E7D
:10048400B16FDDDD010EAB6F0A0EAC6F590EAD6FAF
:10049400010EAE6F6EDE020EAB6FFF0EAC6F6A0E16
:1004A400AD6F010EAE6F65DE030E0B6E8A0E0C6E21
:1004B400550E0D6E0D2EFED70C2EFCD70B2EFAD733
:1004C40000000000010EB16FBADD010EAB6F0B0E20
:1004D400AC6F8F0EAD6F010EAE6F4BDE020EAB6FC5
:1004E400FE0EAC6FA00EAD6F010EAE6F42DE330E8A
:1004F4000B6EBB0E0C6EDF0E0D6E0D2EFED70C2E8A
:10050400FCD70B2EFAD700000000010EB16F97DD67
:10051400010EAB6F0A0EAC6F080EAD6F010EAE6F1D
:1005240028DE020EAB6FFF0EAC6F190EAD6F010E1D
:10053400AE6F1FDE060E0B6E130E0C6EAD0E0D6E3F
:100544000D2EFED70C2EFCD70B2EFAD70000000080
:10055400010EB16F74DD010EAB6F090EAC6FED0EC1
:10056400AD6F000EAE6F05DE020EAB6FAC6BFE0E10
:10057400AD6F000EAE6FFDDD060E0B6E130E0C6E2E
:10058400AD0E0D6E0D2EFED70C2EFCD70B2EFAD70A
:1005940000000000010EB16F52DD010EAB6F080EBA
:1005A400AC6F230EAD6F010EAE6FE3DD020EAB6FC9
:1005B400010EAC6F3E0EAD6F010EAE6FDADD060EAE
:1005C4000B6E130E0C6EAD0E0D6E0D2EFED70C2E93
:1005D400FCD70B2EFAD700000000010EB16F2FDDFF
:1005E400010EAB6F070EAC6F480EAD6F010EAE6F10
:1005F400C0DD020EAB6F020EAC6F340EAD6F010E98
:10060400AE6FB7DD060E0B6E130E0C6EAD0E0D6ED7
:100614000D2EFED70C2EFCD70B2EFAD700000000AF
:10062400010EB16F0CDD060E0B6E130E0C6EAD0ECB
:100634000D6E0D2EFED70C2EFCD70B2EFAD7000014
:060644000000E0D5FFD725
:1007E00010EE15F0950E006E020E016E4A0EF66EBA
:0E07F000060EF76E000EF86E67EC00F01200B9
:10064A0054757268616E43616E204B617267696EA0
:01065A00009F
:0A065B0031353034303330303500D3
:1006650054757268616E43616E204B617267696E85
:010675000084
:0A06760031353034303330303500B8
:1006800054757268616E43616E204B617267696E6A
:010690000069
:0A069100313530343033303035009D
:10069B0054757268616E43616E204B617267696E4F
:0106AB00004E
:0A06AC003135303430333030350082
:1006B60054757268616E43616E204B617267696E34
:0106C6000033
:0A06C7003135303430333030350067
:1006D10054757268616E43616E204B617267696E19
:0106E1000018
:0A06E200313530343033303035004C
:1006EC0054757268616E43616E204B617267696EFE
:0106FC0000FD
:0A06FD003135303430333030350031
:1007070054757268616E43616E204B617267696EE2
:0107170000E1
:0A0718003135303430333030350015
:1007220054757268616E43616E204B617267696EC7
:0107320000C6
:0A07330031353034303330303500FA
:10073D0054757268616E43616E204B617267696EAC
:01074D0000AB
:0A074E0031353034303330303500DF
:1007580054757268616E43616E204B617267696E91
:010768000090
:0A07690031353034303330303500C4
:0A07730031353034303330303500BA
:10077D0054757268616E43616E204B617267696E6C
:01078D00006B
:10078E0054757268616E43616E204B617267696E5B
:01079E00005A
:0A079F00313530343033303035008E
:1007A90054757268616E43616E204B617267696E40
:0107B900003F
:0A07BA003135303430333030350073
:1007C40054757268616E43616E204B617267696E25
:0107D4000024
:0A07D5003135303430333030350058
:020000040030CA
:0D000100231F3CFFBF81FF0FC00FE00F4029
:00000001FF
