:020000040000FA
:100000000F013A6B0F01396B0F01386B946A936AD9
:100010009268000E816E826EB3EC00F080B031D039
:1000200080B263D080B485D0080E256E8132D8802E
:100030008236D880B3EC00F02506F8E1080E256E74
:10004000D8908132D8908236D890B3EC00F0250653
:10005000F7E1080E256ED8808136D8808232D880AC
:10006000B3EC00F02506F7E1080E256ED890813636
:10007000D8908232D890B3EC00F02506F7E109EF72
:1000800000F080A0C6D7010E826EB3EC00F0070E20
:10009000256E8246B3EC00F02506FBE1826AB3ECE4
:1000A00000F0010E816EB3EC00F0070E256E814664
:1000B000B3EC00F02506FBE1800E816E070E256E85
:1000C0008142B3EC00F02506FBE1B3EC00F0816A5D
:1000D000800E826EB3EC00F0070E256E8242B3EC08
:1000E00000F02506FBE141EF00F080A292D7080E58
:1000F000256E8236D880B3EC00F02506FAE1080EB2
:10010000256E8136D880B3EC00F02506FAE1080EA2
:10011000256ED8908132B3EC00F02506FAE1080E86
:10012000256ED8908232B3EC00F02506FAE175EF27
:1001300000F080A46ED7080E256ED8808136D88056
:100140008232D880B3EC00F02506F7E1070E256E69
:10015000D8908132D8908236D890B3EC00F0250642
:10016000F7E199EF00F0280E216E320E226E010E9B
:10017000236E000000002306FCE12206F8E12106C0
:04018000F4E1120094
:02018400000079
:020000040030CA
:01000100B846
:0100020018E5
:010003003CC0
:0100050015E5
:010006008178
:010008000FE8
:01000900C036
:01000A000FE6
:01000B00E014
:01000C000FE4
:01000D0040B2
:00000001FF
