:10000000BFEF01F00000000000EF00F00000000072
:0A0010000000000000000000F3D71C
:0A001C00210E0D6E0D2EFED712000E
:100026000F0E0C6E470E0D6E0D2EFED70C2EFCD746
:06003600000000001200B2
:06003C00000000001200AC
:10004200000163BF02D0819E01D0818E63BD02D0C8
:10005200819C01D0818C63BB02D0819A01D0818ABC
:1000620063B902D0819801D0818852B002D08482D3
:1000720001D084928480E1DF849063B702D0819EB4
:1000820001D0818E63B502D0819C01D0818C63B393
:1000920002D0819A01D0818A63B102D0819801D0C5
:1000A200818852B002D0848201D084928480C5DFDC
:0E00B200849052A002D0B6DF01D0AFDF120062
:1000C000086A080E0C6E003408360450085ED8B07A
:0E00D00002D00826D89000360C2EF5D712006C
:0C00DE00060E0D6E0D2EFED70000120065
:0C00EA0052905EC063F0A8DF528012004C
:1000F6005E6A0001606B616B100E626F040E615DDB
:1001060029E2F00E836E120E006E000E016E830E53
:100116000024E16E0F0E0120E26E621D006E00C02B
:10012600E6FF89DF88DF0F0E8314006E00C05FF0E4
:1001360000520AE060C05EF05F5204E05F325F9EEC
:100146005E2AFAD7040E616F62376291040E602749
:0A015600612BD4D75EC000F0120048
:10016000969296909398939A939C939E849084925F
:10017000819E819C819A819856DF55DF54DF818A68
:10018000818884805BDF84904EDF848057DF849099
:100190004ADF848053DF849046DF819884804EDF7D
:1001A000849041DF84804ADF8490819A818E8480AC
:1001B00045DF849038DF819E818884803FDF849092
:1001C000819884803BDF84902EDF848037DF8490A9
:1001D0008188848033DF849026DF819884802EDFBD
:1001E0008490818E818C818A8188848027DF8490AD
:0601F0001ADF528012002C
:1001F6000900F5CFE6FF0006FBE10106F9E1120072
:10020600120E006E000E016E830E0024E16E0F0EBC
:0A0216000120E26EFF0EE66E1200FA
:100220000FD0800E586E19D0C00E586E16D0940E96
:10023000586E13D0D40E586E10D0800E586E0DD05C
:100240005850010AEEE05850020AEEE05850030AF6
:10025000EEE05850040AEEE0F0D75904006E585012
:10026000002600C058F000C063F0EBDE52905C6ADC
:100270005C505A24E96E000E5B20EA6EEE520BE0F1
:100280005C505A24E96E000E5B20EA6EEECF5EF001
:0A0290002CDF5C2AEDD7528012002B
:10029A005B6A030E5B5C0AE25B505924E16E000E56
:1002AA005A20E26E200EE66E5B2AF3D75B50592481
:1002BA00E16E000E5A20E26EE66A5B065B50592434
:1002CA005C6E000E5A205D6E0A0E046E58C000F075
:1002DA00F2DE08C000F0300E00265CC0E1FF5DC00F
:1002EA00E2FF00C0E6FF0A0E046E58C000F0E3DE2B
:1002FA0000C058F00050000A01E102D05B06DED7C8
:02030A001200DF
:10030C000FD0800E586E19D0C00E586E16D0940EA9
:10031C00586E13D0D40E586E10D0800E586E0DD06F
:10032C005850010AEEE05850020AEEE05850030A09
:10033C00EEE05850040AEEE0F0D75904006E585025
:10034C00002600C058F0528000C063F074DE52905A
:0A035C005AC063F070DE52801200F8
:10036600C7DE00C058F00F0E8314006E02E0B4DE44
:08037600FAD758C000F0120094
:10037E0030EC03F0050E506E3FDF0F01396B3B6B17
:10038E003C6BE7DE010E0001636F54DE0C0E636FF3
:10039E0051DE010E586E010E596E1B0E5A6E000E76
:1003AE005B6E37DF020E586E010E596E2D0E5A6EB1
:1003BE00000E5B6E2EDF150E0B6E4B0E0C6EBE0E10
:1003CE000D6E0D2EFED70C2EFCD70B2EFAD700007D
:1003DE00010E636F2FDE516ABFDF00C051F0005275
:1003EE00FBE030D0310E516E5DD0320E516E5AD0D0
:1003FE00330E516E57D0410E516E54D0340E516E95
:10040E0051D0350E516E4ED0360E516E4BD0420E2F
:10041E00516E48D0370E516E45D0380E516E42D0C7
:10042E00390E516E3FD0430E516E3CD02A0E516E96
:10043E0039D0300E516E36D0230E516E33D0440E5D
:10044E00516E30D05150010ACDE05150020ACDE02C
:10045E005150030ACDE05150040ACDE05150050A27
:10046E00CDE05150060ACDE05150070ACDE0515073
:10047E00080ACDE05150090ACDE051500A0ACDE0EC
:10048E0051500B0ACDE051500C0ACDE051500D0ADF
:10049E00CDE051500E0ACDE051500F0ACDE0515033
:1004AE00100ACDE0010E586E502A50C059F051C0BE
:1004BE005AF025DF010E586E080E596E190E5A6E3F
:1004CE00000E5B6EA6DE020E0B6E040E0C6EBA0EE6
:1004DE000D6E0D2EFED70C2EFCD70B2EFAD700006C
:1004EE0050500A0AD8A498D0010E636FA3DD3B0EBC
:1004FE004F6E000E4F5CD8A085D04FC058F04B0EFB
:10050E00596E000E5A6EC2DE010E586E080E596EEE
:10051E004B0E5A6E000E5B6E7CDE010E586E070E91
:10052E00596E170E5A6E000E5B6E73DE010E586E0C
:10053E00060E596E150E5A6E000E5B6E6ADE010EB9
:10054E00586E080E596E3D0E5A6E000E5B6E61DED1
:10055E00030E0B6E8A0E0C6E550E0D6E0D2EFED703
:10056E000C2EFCD70B2EFAD7000000004F50000ABD
:10057E0047E1010E636F5EDD3B0E536E000E535C62
:10058E003FE353C058F0540E596E000E5A6E7EDE85
:10059E00010E586E080E596E540E5A6E000E5B6E9A
:1005AE0038DE010E586E070E596E490E5A6E000E49
:1005BE005B6E2FDE010E586E060E596E470E5A6E8A
:1005CE00000E5B6E26DE010E586E080E596E3F0E43
:1005DE005A6E000E5B6E1DDE030E0B6E8A0E0C6ED7
:1005EE00550E0D6E0D2EFED70C2EFCD70B2EFAD7F8
:1005FE00000000005350000801E304D05306BED79C
:10060E004F0677D7010E586E060E596E410E5A6E72
:0C061E00000E5B6EFEDDF6D7DED6FFD7C7
:1006600010EE15F0360E006E010E016E2A0EF66EBB
:0E067000060EF76E000EF86EFBEC00F01200A6
:02062A0030009E
:02062C0031009B
:02062E003A0090
:10063000456E74657220466F7572204469676974EF
:02064000730045
:1006420041667465722032207365636F6E64730055
:020652003A006C
:020654003A006A
:0606560030303A303000A4
:02065C0030006C
:02065E0030006A
:020000040030CA
:0D000100231F3CFFBF81FF0FC00FE00F4029
:00000001FF
