:04000000ECEF00F031
:10000800F2A405D0770ED76E770ED66EF2949EA026
:1000180007D0204A212A3C0ECF6EB00ECE6E9E909D
:020028001100C5
:10002A00086A096A100E0C6E013408360936045043
:10003A00085E0550D8A0053C095ED8B007D0045028
:10004A0008260550D8B0053C0926D8900036013656
:06005A000C2EEAD7120093
:10006000396A050E395C0AE239503724E16E000E18
:100070003820E26E200EE66E392AF3D73950372445
:10008000E16E000E3820E26EE66A390639503724F8
:100090003A6E000E38203B6E0A0E046E000E056E9E
:1000A00035C000F036C001F0C0DF08C000F009C064
:1000B00001F0300E00263AC0E1FF3BC0E2FF00C075
:1000C000E6FF0A0E046E000E056E35C000F036C065
:1000D00001F0ABDF00C035F001C036F0000E0118B2
:1000E00002E1000E001801E102D03906CFD712005C
:1000F000316A326A2BC033F02CC034F0800E2C18D9
:10010000006E800E005C02E1000E2B5C0BE2010E23
:10011000316E000E326E2B500008336E2CC034F05E
:10012000000E345633C035F034C036F02DC037F0F1
:100130002EC038F095DF060E2F6E000E306E000ECA
:10014000006E3050005C02E12F50000819E22F5081
:100150002D24E16E30502E20E26E010E2F5C006ED9
:10016000000E3058016E00502D24E96E01502E20F3
:10017000EA6EEECFE6FF010E2F5E000E305ADFD79B
:100180002DC0E1FF2EC0E2FF200EE66E315032108E
:100190001AE02F6A306A2F502D24E96E30502E203D
:1001A000EA6EEE50200A03E12F4A302AF4D7010EFE
:1001B0002F5E000E305A2F502D24E16E30502E202D
:0801C000E26E2D0EE66E120046
:1001C8000900F5CFE6FF0006FBE10106F9E11200A0
:1001D800156A166A0F01386B396B3A6B3B6B3C6BCF
:1001E800FF0E926E010E936E946A956A966A806A03
:1001F800846A990E826E990E836ED00E0C6EC90EAB
:100208000D6E0D2EFED70C2EFCD700000000880EB8
:10021800826E880E836ED00E0C6EC90E0D6E0D2E7A
:10022800FED70C2EFCD700000000770E826E770EEA
:10023800836ED00E0C6EC90E0D6E0D2EFED70C2ED1
:10024800FCD700000000660E826E660E836ED00E2C
:100258000C6EC90E0D6E0D2EFED70C2EFCD70000AD
:100268000000550E826E550E836ED00E0C6EC90EB0
:100278000D6E0D2EFED70C2EFCD700000000440E8C
:10028800826E440E836ED00E0C6EC90E0D6E0D2E4E
:10029800FED70C2EFCD700000000330E826E330E02
:1002A800836ED00E0C6EC90E0D6E0D2EFED70C2E61
:1002B800FCD700000000220E826E220E836ED00E44
:1002C8000C6EC90E0D6E0D2EFED70C2EFCD700003D
:1002D8000000110E826E110E836ED00E0C6EC90EC8
:1002E8000D6E0D2EFED70C2EFCD700000000826A82
:1002F800836AA80ED56E770ED76E770ED66E3C0E33
:10030800CF6EB00ECE6E070ECD6EC00EF26E9D8013
:10031800770E826E770E836ED6CF29F0000E2A6E86
:10032800D7CF1EF0000E1F6E000E215C02E1140EE6
:10033800205C62E38474770E295C056E000E2A58EF
:10034800066E770E1E5C036E000E1F58046E03C007
:1003580001F0006A055000260650012200C015F081
:1003680001C016F000C02BF001C02CF0170E2D6E46
:10037800000E2E6EB9DE000E215C02E1140E205C28
:1003880039E315C02BF016C02CF0170E2D6E000E99
:100398002E6EAADE800E006E800E1618005C02E13A
:1003A800155064080EE2800E1618006E800E005C70
:1003B80002E1C80E155C05E282068250000AD8B434
:1003C8008306800E006E800E1618005C02E1155040
:1003D800C8080FE2800E1618006E800E010A005C35
:1003E80002E12C0E155C05E2822A8250FF0AD8B47D
:1003F800832AC1D7206A216A20C02BF021C02CF0A3
:0E040800220E2D6E000E2E6E6FDE86D7FFD7F1
:020000040030CA
:0D000100231F3CFFBF81FF0FC00FE00F4029
:00000001FF
