:1000000034EF02F00000000000EF00F000000000FC
:0A0010000000000000000000F3D71C
:0A001C00210E0D6E0D2EFED712000E
:100026000F0E0C6E470E0D6E0D2EFED70C2EFCD746
:06003600000000001200B2
:06003C00000000001200AC
:100042000101B5BF02D0819E01D0818EB5BD02D023
:10005200819C01D0818CB5BB02D0819A01D0818A6A
:10006200B5B902D0819801D08188A1B102D0848231
:1000720001D084928480E1DF8490B5B702D0819E62
:1000820001D0818EB5B502D0819C01D0818CB5B3EF
:1000920002D0819A01D0818AB5B102D0819801D073
:1000A2008188A1B102D0848201D084928480C5DF8C
:0E00B2008490A1A102D0B6DF01D0AFDF120012
:1000C0000134083609360450085E0550D8A0053CB6
:1000D000095E003601360F0E0C6E01340836093603
:1000E000045000A006D0085E0550D8A0053C095E6B
:1000F00005D008260550D8B0053C09260036013643
:100100000C2EEBD700B006D0045008260550D8B00E
:08011000053C09260000120065
:0E0118000101A191B0C1B5F190DFA1811200EB
:100126000101B06BB26BB36B100EB46F040EB35D0E
:1001360029E2F00E836E120E006E000E016E830E23
:100146000024E16E0F0E0120E26EB41D006E00C0A9
:10015600E6FF71DF70DF0F0E8314006E00C0B1F191
:1001660000520AE0B2C1B0F1B15304E0B133B19F1D
:10017600B02BFAD7040EB36FB437B491040EB2277E
:0A018600B32BD4D7B0C100F0120073
:0C019000060E0D6E0D2EFED700001200B2
:10019C000B6A0A6A096A00500402F4CF09F0F3CF23
:1001AC0008F001500502F4CF0BF0F3CF0AF0005029
:1001BC000502F3500926F4500A22E86A0B2201507A
:1001CC000402F3500926F4500A22E86A0B2208C0F4
:1001DC0000F009C001F00AC002F00BC003F01200DD
:1001EC0010D0800E0101AB6F1AD0C00EAB6F17D0C0
:1001FC00940EAB6F14D0D40EAB6F11D0800EAB6FCE
:10020C000ED00101AB51010AECE0AB51020AEDE05A
:10021C00AB51030AEDE0AB51040AEDE0EFD7AC05AE
:10022C00006EAB51002600C0ABF100C0B5F103DF8E
:10023C00A191AF6BAF51AD25E96E000EAE21EA6E08
:10024C00EE520BE0AF51AD25E96E000EAE21EA6E19
:0E025C00EECFB0F15BDFAF2BEDD7A18112002A
:10026A00969296909398939A939C939E8490849254
:10027A00819E819C819A8198D1DED0DECFDE818AEF
:10028A0081888480D6DE8490C9DE8480D2DE849020
:10029A00C5DE8480CEDE8490C1DE81988480C9DE8A
:1002AA008490BCDE8480C5DE8490819A818E8480AD
:1002BA00C0DE8490B3DE819E81888480BADE849019
:1002CA0081988480B6DE8490A9DE8480B2DE849030
:1002DA0081888480AEDE8490A1DE81988480A9DE44
:1002EA008490818E818C818A81888480A2DE849028
:0802FA0095DE0101A181120053
:100302000900F5CFE6FF0006FBE10106F9E1120064
:1003120010D0800E0101AB6F1AD0C00EAB6F17D098
:10032200940EAB6F14D0D40EAB6F11D0800EAB6FA6
:100332000ED00101AB51010AECE0AB51020AEDE033
:10034200AB51030AEDE0AB51040AEDE0EFD7AC0587
:10035200006EAB51002600C0ABF1A18100C0B5F127
:0E0362006FDEA191ADC1B5F16BDEA18112007D
:100370000450000A08E10550000A05E1FF0E006E76
:100380007F0E016E57D00D6A096A086A015000108D
:10039000D8B4000C015005180A6E0ABE0D1E0B6A77
:1003A00005AE05D0041E051E042AD8B4052A01AEE8
:1003B00005D0001E011E002AD8B4012A01500510E4
:1003C0000A6E0ABE10D07CDE0BB020D00DAE000C41
:1003D000001E011E002AD8B4012A081E091E082A80
:1003E000D8B4092A000C05AE0DD001BE07D00150CB
:1003F000096E0050086E016A006AE8D7016A006A57
:10040000002A000C011E001E0B2ADDD7082AD8B4D2
:10041000092A0450085CD8A4D9D70550095CD8A48F
:10042000D5D7096A086A002AD8B4012A01AECED706
:060430000000FF0C1200A9
:10043600120E006E000E016E830E0024E16E0F0E8A
:0A0446000120E26EFF0EE66E1200C8
:100450006ADE00C0ABF10F0E8314006E02E098DE7E
:08046000FAD7ABC100F0120055
:1004680057EC05F00F01396B3B6B3C6BFADE010E64
:10047800B56FE3DD0C0EB56FE0DD010EB56FDDDDA8
:10048800020EAB6F010EAC6FFA0EAD6F000EAE6FC1
:10049800A9DE020E0B6E450E0C6EA90E0D6E0D2E0A
:1004A800FED70C2EFCD70B2EFAD700000000010E49
:1004B800B56FC3DD020EAB6FAC6BDD0EAD6F000E1A
:1004C800AE6F90DE020E0B6E450E0C6EA90E0D6E11
:1004D8000D2EFED70C2EFCD70B2EFAD700000000ED
:1004E800010EB56FAADD020EAB6FFF0EAC6FC00E2A
:1004F800AD6F000EAE6F76DE020E0B6E450E0C6E03
:10050800A90E0D6E0D2EFED70C2EFCD70B2EFAD78A
:1005180000000000010EB56F90DD020EAB6FFE0EFD
:10052800AC6F170EAD6F010EAE6F5CDE020E0B6E78
:10053800450E0C6EA90E0D6E0D2EFED70C2EFCD797
:100548000B2EFAD700000000010EB56F76DD020E03
:10055800AB6FFD0EAC6F6E0EAD6F010EAE6F42DE6F
:10056800020E0B6E450E0C6EA90E0D6E0D2EFED7EB
:100578000C2EFCD70B2EFAD700000000020EAB6F32
:10058800FC0EAC6F510EAD6F010EAE6F2BDE020E7E
:100598000B6E450E0C6EA90E0D6E0D2EFED70C2E91
:1005A800FCD70B2EFAD700000000010EB56F45DD11
:1005B800020EAB6FFB0EAC6F340EAD6F010EAE6F5B
:1005C80011DE020E0B6E450E0C6EA90E0D6E0D2E71
:1005D800FED70C2EFCD70B2EFAD700000000010E18
:1005E800B56F2BDD020EAB6FFA0EAC6F4F0EAD6F11
:1005F800000EAE6FF7DD020E0B6E450E0C6EA90EE7
:100608000D6E0D2EFED70C2EFCD70B2EFAD7000040
:100618000000010EB56F11DD020EAB6FF90EAC6F65
:10062800320EAD6F000EAE6FDDDD020E0B6E450EA5
:100638000C6EA90E0D6E0D2EFED70C2EFCD70B2EB0
:10064800FAD700000000010EB56FF7DC020EAB6FA1
:10065800F80EAC6F150EAD6F000EAE6FC3DD020E57
:100668000B6E450E0C6EA90E0D6E0D2EFED70C2EC0
:10067800FCD70B2EFAD700000000010EB56FDDDCA9
:10068800020EAB6FF70EAC6F6C0EAD6F000EAE6F57
:10069800A9DD020E0B6E450E0C6EA90E0D6E0D2E09
:1006A800FED70C2EFCD70B2EFAD700000000010E47
:1006B800B56FC3DC020EAB6FF60EAC6FA30EAD6F59
:1006C800000EAE6F8FDD030E0B6E8A0E0C6E550E8C
:1006D8000D6E0D2EFED70C2EFCD70B2EFAD7000070
:1006E8000000010EB56FA9DC060E0B6E130E0C6E22
:1006F800AD0E0D6E0D2EFED70C2EFCD70B2EFAD795
:100708000000000094DE010EAB6F010EAC6F940E7A
:10071800AD6F000EAE6F66DD020EAB6F010EAC6FF3
:10072800890EAD6F000EAE6F5DDD0B0E0B6E260EE3
:100738000C6E5D0E0D6E0D2EFED70C2EFCD70B2EFB
:10074800FAD700000000010EB56F77DCA46B7CDEE1
:1007580000C0A4F10052FBE0A45110080AE38B0E7C
:10076800E96E010EEA6EA451E926D8B0EA2AEECF66
:10077800A4F1010EAB6F020EAC6FA4C1ADF1C5DDE3
:10078800A76BA86B61DE00C0A7F1000EA86FA75188
:10079800A811F8E0800E006E800EA819005C02E136
:1007A800A75110080CE38B0EA725E96E010EA821AE
:1007B800EA6EEECFA7F1000EA86F000EA86F010E2B
:1007C800AB6F030EAC6FA7C1ADF19FDDA56BA66B38
:1007D8003BDE00C0A5F1000EA66FA551A611F8E0FA
:1007E800800E006E800EA619005C02E1A55110086B
:1007F8000CE38B0EA525E96E010EA621EA6EEECF5D
:10080800A5F1000EA66F000EA66F010EAB6F040EC9
:10081800AC6FA5C1ADF179DD0F0EA415026E02C053
:10082800A4F10F0EA715006EA8C101F0000E011665
:1008380000C0A7F101C0A8F10F0EA515A96FA6C1A8
:10084800AAF1000EAA17A9C1A5F1AAC1A6F19F6B2A
:10085800A06B640E0202F3CF9FF1F4CFA0F10A0E51
:10086800046E000E056E96DC00509F270150A023F1
:10087800A9519F27AA51A023080E9D6F000E9E6FB5
:10088800000E9E1902E1000E9D1936E0020E046E5C
:10089800000E056E9FC100F0A0C101F065DD08C023
:1008A80000F009C001F000C0A2F101C0A3F10101EC
:1008B800A0339F33A09FA0BDA08FA0AF03D002E3B9
:1008C8009F4BA02B000E011802E1010E001808E151
:1008D800020EAB6F9DC1ACF1310EAD6F16DD07D0C6
:1008E800020EAB6F9DC1ACF1300EAD6F0EDD010E87
:1008F8009D5F000E9E5BC4D71F0E0B6E710E0C6EB3
:100908001E0E0D6E0D2EFED70C2EFCD70B2EFAD711
:0E0918000000010EB56F21EC00F018D7FFD7DC
:100AAE0010EE15F0880E006E020E016E260EF66E1A
:0E0ABE00090EF76E000EF86E81EC01F01200CA
:10092600446563696D616C20746F2042696E617203
:0D0936007920436F6E7665727465729400CF
:10094300446563696D616C20746F2042696E6172E6
:0D0953007920436F6E7665727465729400B2
:10096000446563696D616C20746F2042696E6172C9
:0D0970007920436F6E766572746572940095
:10097D00446563696D616C20746F2042696E6172AC
:0D098D007920436F6E766572746572940078
:0B099A00746F20436F6E76657274006E
:0F09A50057726974652061204E756D626572002E
:1009B400446563696D616C20746F2042696E617275
:0D09C4007920436F6E766572746572940041
:1009D100446563696D616C20746F2042696E617258
:0D09E1007920436F6E766572746572940024
:1009EE00446563696D616C20746F2042696E61723B
:0D09FE007920436F6E766572746572940007
:100A0B00446563696D616C20746F2042696E61721D
:0D0A1B007920436F6E7665727465729400E9
:100A2800446563696D616C20746F2042696E617200
:0D0A38007920436F6E7665727465729400CC
:100A4500446563696D616C20746F2042696E6172E3
:0D0A55007920436F6E7665727465729400AF
:100A6200446563696D616C20746F2042696E6172C6
:0D0A72007920436F6E766572746572940092
:100A7F00446563696D616C20746F2042696E6172A9
:0D0A8F007920436F6E766572746572940075
:100A9C002037343120383532303936333D2F2A2D3A
:020AAC002B001D
:020000040030CA
:0D000100231F3CFFBF81FF0FC00FE00F4029
:00000001FF
