:040000003CEF00F0E1
:1000080000C015F0F2A228D0164A172A000E175C75
:1000180002E10A0E165C20E38182330E0B6EBB0EE2
:100028000C6EDF0E0D6E0D2EFED70C2EFCD70B2E90
:10003800FAD70000000081920B0E0B6E260E0C6E94
:100048005D0E0D6E0D2EFED70C2EFCD70B2EFAD79B
:1000580000000000166A176AF29215C000F011003D
:100068000900F5CFE6FF0006FBE10106F9E1120001
:10007800166A176A0F01396B3B6B010E936E956A0E
:10008800F19CF292F288F28E16C083FFFDD7FFD75B
:020000040030CA
:0D000100231F3CFFBF81FF0FC00FE00F4029
:00000001FF
